:100000000C9462000C948A000C948A000C948A0070
:100010000C948A000C948A000C948A000C948A0038
:100020000C948A000C948A000C948A000C948A0028
:100030000C948A000C948A000C948A000C948A0018
:100040000C94120F0C948A000C948A000C948A0071
:100050000C948A000C948A000C948A000C948A00F8
:100060000C94F30D0C948A0000000000230026007D
:10007000290000000000240027002A0000000000E2
:10008000250028002B0004040404040404040202D4
:100090000202020203030303030301020408102007
:1000A0004080010204081020010204081020000012
:1000B0000008000201000003040700000000000027
:1000C00000005C0F11241FBECFEFD8E0DEBFCDBF14
:1000D00011E0A0E0B1E0ECE9F5E202C005900D927C
:1000E000AA38B107D9F727E0AAE8B1E001C01D920C
:1000F000A431B207E1F710E0C2E6D0E004C02197D6
:10010000FE010E94B012C136D107C9F70E941F102C
:100110000C94CC120C940000662329F06A3019F07C
:10012000862F90E008958FEF9FEF0895AF92BF92D2
:10013000CF92DF92EF92FF920F93CF93DF93EC0178
:10014000DA017901942F9770E1E0F0E09F01092E28
:1001500001C0220F0A94EAF7522F6E018AE8C80EF6
:10016000D11CF601808140E0823018F4422F8130AA
:1001700049F15D01F8EFAF22E8ADF9AD2881398191
:10018000D90150968C918A9D90018B9D300D112440
:10019000620F731FDF01A60FB71F01111AC0EA0E0D
:1001A000FB1E8C91842B85278D93AE15BF05C9F757
:1001B000DF91CF910F91FF90EF90DF90CF90BF90A4
:1001C000AF90089550E0D5CF440F550FE114F104DE
:1001D00079F33C91342B35273C939F5F9770E1E096
:1001E000EE1AF1089111F0CF2CAD3DADA20FB31F67
:1001F000F6018081823028F4813009F051E041E03D
:10020000E5CF51E0E3CF80E0089590E080E00895ED
:10021000CF93DF93CEE7D6E08FAFEAADFBAD019091
:10022000F081E02D82E896E00995EAADFBAD028011
:10023000F381E02D82E896E0DF91CF9109949B0154
:10024000DC011896ED91FC9141E067E10994209161
:100250002602260F3327331F21323105ECF420917B
:100260004C02FC0190E080E0243069F082E00895C7
:10027000A09126022191AC014C5F5D4FA40FB52FD8
:10028000B11D2C930196861798F380912602680F72
:100290006093260280E0089581E00895089508950E
:1002A0000895E091FB018091FA01E81730F4F0E045
:1002B000E652FE4F808190E008958FEF9FEF089502
:1002C0009091FB018091FA012FEF3FEF981748F4CE
:1002D000E92FF0E0E652FE4F208130E09F5F9093DF
:1002E000FB01C90108958091FA019091FB01891BDE
:1002F000990B0895CF92DF92EF92FF920F931F9385
:10030000CF93DF937C01CB018A012091D901222375
:1003100089F0EB016B01C40ED51ECC15DD0569F02B
:100320006991D701ED91FC910190F081E02DC70119
:100330000995F3CF642F0E942701C801DF91CF9167
:100340001F910F91FF90EF90DF90CF900895CF9382
:10035000DF931F92CDB7DEB769832091D9012223A5
:10036000F9F02091FC01203258F021E030E0FC014E
:100370003383228390E080E00F90DF91CF91089546
:100380008091FD01E82FF0E0E754FE4F99819083C2
:100390008F5F8093FD018093FC0181E090E0ECCFC2
:1003A00061E0CE0101960E942701F7CF833081F0F2
:1003B00028F4813099F08230A9F008958730A9F0AF
:1003C0008830C9F08430B1F4809180008F7D03C003
:1003D000809180008F7780938000089584B58F7717
:1003E00084BD089584B58F7DFBCF8091B0008F7759
:1003F0008093B00008958091B0008F7DF9CF1F9356
:10040000CF93DF93282F30E0F901E255FF4F84911D
:10041000F901E656FF4FD491F901EA57FF4FC49115
:10042000CC23A9F0162F81110E94D601EC2FF0E009
:10043000EE0FFF1FE458FF4FA591B4918FB7F894CA
:10044000EC91111108C0D095DE23DC938FBFDF91B2
:10045000CF911F910895DE2BF8CF10924C0281E0CE
:1004600080934E0210924D0261E082E10E94FF01F2
:1004700061E083E10E94FF01E9EBF0E080818E7F83
:10048000808380818D7F808388E48093B80085E4B9
:100490008093BC000895CF93DF9391E09093030283
:1004A0008823B9F0C091B800D091BA008091BC0007
:1004B0008A7B8093BC0060E082E10E94FF0160E0E3
:1004C00083E10E94FF010E942D02D093BA00C093E5
:1004D000B800DF91CF910895CF93DF9390E0FC01B6
:1004E000E656FF4F24918A579F4FFC018491882341
:1004F000D1F090E0880F991FFC01EE58FF4FA591B5
:10050000B491FC01E458FF4FC591D491623071F46D
:100510009FB7F8943C91822F809583238C93E88138
:100520002E2B28839FBFDF91CF9108958FB7F8942A
:10053000EC912E2B2C938FBFF6CF3FB7F894809180
:10054000B5019091B601A091B701B091B80126B55F
:10055000A89B05C02F3F19F00196A11DB11D3FBFFB
:10056000BA2FA92F982F8827BC01CD01620F711DCA
:10057000811D911D42E0660F771F881F991F4A95C4
:10058000D1F708958F929F92AF92BF92CF92DF9250
:10059000EF92FF926B017C010E949D024B015C0176
:1005A000C114D104E104F104B9F00E949D0268195C
:1005B00079098A099B09683E73408105910580F39A
:1005C00021E0C21AD108E108F10888EE880E83E024
:1005D000981EA11CB11CE4CFFF90EF90DF90CF904C
:1005E000BF90AF909F908F900895DC011A96ED9187
:1005F000FC9130E020E00994DC011496ED91FC912F
:1006000030E020E040E060E10994DC011696ED91D5
:10061000FC9130E020E040E069E10994DC011696AD
:10062000ED91FC9130E020E040E068E109949A010E
:10063000DC011696ED91FC91462F67E10994EF924B
:10064000FF920F931F93CF93DF931F92CDB7DEB727
:100650007C018B01D8016C91673129F150F465312F
:10066000A0F40F90DF91CF911F910F91FF90EF9029
:1006700008956A3118F16E3FA1F7F801418149836D
:1006800069E2C7010E94F5020BC0F801418149836C
:10069000D7011696ED91FC9130E020E0C701099555
:1006A0000E5F1F4FD7CFF80181818983AE014F5F65
:1006B0005F4F61E0C7010E941703F2CF0F5F1F4F2A
:1006C000D7011696ED91FC9130E020E040E0C701A3
:1006D0000995C0CF462FDC011696ED91FC9130E0D4
:1006E00020E066E10994462FDC011696ED91FC911D
:1006F00030E020E065E10994EF92FF920F931F93A1
:10070000CF93DF93EC01042F79016D3009F446C0DB
:1007100050F46B30C9F1693009F49FC06A3009F4B4
:1007200065C080E046C06E3009F452C06F3099F762
:100730000E940E03F7011381110F110F110F6C8925
:10074000160F60E4CE010E947303612F62956F70F3
:100750006061CE010E947303612F6F70CE010E9411
:100760006A03F7016481606BCE010E946A03F7019E
:10077000408151816281660F660F660FCE010E9433
:1007800017030150A1F72EC063E171E0442311F07B
:100790006EE071E0CE010E941F030AC0411110C03B
:1007A00067E071E00E941F03E881F98182898C8BE8
:1007B00081E0DF91CF911F910F91FF90EF9008950D
:1007C00060E071E00E941F03E881F9818389EFCF27
:1007D0000E940E0361E8CE010E947303602FCE01D8
:1007E0000E946A03CE010E940503E2CFEA85FB85E1
:1007F00030E020E040E068E2CE010995EE81FF8123
:1008000030E020E040E064E1CE01099541E06BE496
:10081000CE010E94F502E881F981448169E2CE01AE
:100820000E94F50240E06BE4CE010E94F502E881EF
:10083000F981448169E2CE010E94F50241E06BE456
:10084000CE010E94F502E881F981458169E2CE017D
:100850000E94F50268E171E09DCF8DE491E09983FB
:1008600088831C8AA5CFDC011896ED91FC9130E0BD
:1008700020E040E069E10994DC011896ED91FC91DB
:1008800030E020E040E068E10994CF93DF931F92CD
:10089000CDB7DEB76983BE016F5F7F4F0E941F0136
:1008A0000F90DF91CF910895EF92FF921F93CF9316
:1008B000DF93EC01162F7A010E943C0460E4CE0124
:1008C0000E944504E885F9859701412F67E1CE0133
:1008D0000995CE01DF91CF911F91FF90EF900C947D
:1008E0003304EF92FF921F93CF93DF93EC01142F09
:1008F0007901663181F138F4643109F44BC0653116
:1009000079F080E022C06831C9F150F16931C9F74E
:100910008091AF01882391F1CE010E9433042EC053
:100920008091AF01882319F0CE010E943304CE01DB
:100930000E943C0460E0CE010E944504612FCE017C
:100940000E94450481E08093AF01DF91CF911F9118
:10095000FF90EF900895642F0E94450481E0F5CF49
:100960008091AF01882319F0CE010E943304A701C2
:10097000193138F4612FCE010E9454041092AF0156
:10098000EDCF68E1CE010E945404185188E1E80ED1
:10099000F11CEDCF8E898F3F11F488E78E8BE885AF
:1009A000F9859701412F64E1CE01DF91CF911F912D
:1009B000FF90EF9009940F93FC01E05CFF4F0190D2
:1009C000F081E02D4E1B5F0BDC01D496ED91FC9184
:1009D00009950F910895CF93DF93FC01A081B18118
:1009E00082AD90E09C0143E0220F331F4A95E1F76E
:1009F00037AF26AF50962C91509748E0249F900136
:100A0000112435AF24AF23AD30E0B90153E0660FB8
:100A1000771F5A95E1F7EF01C05CDF4F7983688358
:100A200051964C915197E901C80FD91F50E04C17CE
:100A30005D0718F4CA01821B930BEF01CE5BDF4FF9
:100A400079836883229623E0880F991F2A95E1F71E
:100A5000860F971F99838883229654968D919C9137
:100A6000559799838883E85BFF4F56968D919C91AB
:100A700091838083DF91CF9108950F931F93FC01A1
:100A8000E25BFF4F0190F081E02DDC01A05BBF4FE6
:100A90000D90BC91A02D4A175B0740F4E017F107B9
:100AA00048F00417150730F080E019C0E017F1078F
:100AB000C0F3FACFFC01E65BFF4F40815181845BBC
:100AC0009F4FFC01808191816817790758F481E07C
:100AD0004217530720F081E02617370728F71F91A8
:100AE0000F91089542175307B0F3DECF2F923F9234
:100AF0004F925F926F927F928F929F92AF92BF922E
:100B0000CF92DF92EF92FF920F931F93CF93DF93D9
:100B1000CDB7DEB72A970FB6F894DEBF0FBECDBFB4
:100B20009A878987865B9F4F9A838983FC0111820C
:100B30001082E985FA85EA5BFF4F40805180298564
:100B40003A85245B3F4F3C832B83F90151824082DD
:100B5000E985FA85EE5BFF4F2080318029853A8553
:100B6000225B3F4F3E832D83F90131822082E9854C
:100B7000FA85EC5BFF4F6080718029853A85205BA8
:100B80003F4F38872F83F90171826082E985FA85AA
:100B9000E85AFF4FE080F180E985FA85EC5AFF4F73
:100BA000A080B180E985FA85EA5AFF4FC080D180E4
:100BB000E985FA85EE5AFF4F808091808701950183
:100BC000A601B40189859A850E943D0529853A854B
:100BD0002C573F4F3A87298781111BC0F90110829A
:100BE0002A960FB6F894DEBF0FBECDBFDF91CF912E
:100BF0001F910F91FF90EF90DF90CF90BF90AF903B
:100C00009F908F907F906F905F904F903F902F902C
:100C1000089581E0E985FA8580838114910421F0AB
:100C2000E981FA8191828082A414B50420F4EB81D9
:100C3000FC81B182A0822C143D0420F4ED81FE8160
:100C4000D182C082E614F70458F6EF81F885F1826C
:100C5000E082C6CF0F93CF93DF93E02FDC01AC5738
:100C6000BF4FFC91FF2309F460C02115310509F441
:100C70005CC02230310538F0023009F04AC06F5FA5
:100C80007F4F621B730B0E2F0170E0FD52C0FC0101
:100C9000E25BFF4F0190F081E02D4E175F0708F4F3
:100CA00044C0FC01E05BFF4F0190F081E02D4E1746
:100CB0005F07D8F5FC01E45BFF4F0190F081E02D68
:100CC000DC01A65BBF4F0D90BC91A02D260F371FF6
:100CD0002617370738F56E177F0718F59F01215043
:100CE0003109A217B30708F56A177B0708F4BD019D
:100CF0002E173F0708F4F901E61BF70BEC01AEA92C
:100D0000BFA914960D90BC91A02D9F01FD010995DE
:100D10000CC0033009F0B7CF4F5F5F4F421B530B3E
:100D2000B2CFBD016E177F07E0F2DF91CF910F9137
:100D30000895FC01E65BFF4F0190F081E02D6E17F6
:100D40007F0798F3FC01E45BFF4F0190F081E02DF9
:100D50006E177F0750F7FC01E05BFF4F0190F081B9
:100D6000E02DDC01A25BBF4F0D90BC91A02D240FA4
:100D7000351F24173507A8F44E175F0788F49F0125
:100D800021503109A217B30780F64A175B0708F410
:100D9000AD012E173F0708F4F901E41BF50BAECFA8
:100DA000AD014E175F0708F6EDCF0F932091D006E7
:100DB0003091D10662177307F0F02091D20630917E
:100DC000D30662177307B8F42091CC063091CD0694
:100DD0008217930780F02091CE063091CF068217BC
:100DE000930748F4AB01BC0100E021E030E082E869
:100DF00096E00E942A060F9108954F925F926F929B
:100E00007F928F929F92AF92BF92CF92DF92EF929A
:100E1000FF920F931F93CF93DF93EC018B0180E23E
:100E2000E82EF12C4701861A970A6E0180E4C80E5D
:100E3000D11CB401C6010E94D506EC1AFD0A380186
:100E400080E4680E711CB701C3010E94D50690E4CE
:100E5000A92EB12C25014C1A5D0AB401C2010E94D1
:100E6000D506A01AB10AB701C5010E94D506005ED9
:100E70001F4FB801C6010E94D506A096BE01C3014E
:100E80000E94D506B801C2010E94D506BE01C50167
:100E9000DF91CF911F910F91FF90EF90DF90CF9056
:100EA000BF90AF909F908F907F906F905F904F908A
:100EB0000C94D5062F923F924F925F926F927F9241
:100EC0008F929F92AF92BF92CF92DF92EF92FF925A
:100ED0000F93CF93DF9300D000D0CDB7DEB74C0196
:100EE0005B015C834B836B018FEFC81AD80A8AE1E0
:100EF000682E712C2301461A570A1A01280C391C36
:100F000001E09601A201B10182E896E00E942A0662
:100F100074019FEFE91AF90A681879088B819C819E
:100F20008A0D9B1D9A8389839701A301BC0182E8E6
:100F300096E00E942A068B819C81881999094C01B0
:100F40009601A201BC0182E896E00E942A068B81EC
:100F50009C818A199B099C838B839701A301BC0107
:100F600082E896E00E942A0696014AE150E0B1012B
:100F700082E896E00E942A0697014AE150E06981E2
:100F80007A8182E896E00E942A0696014AE150E0C2
:100F9000B40182E896E00E942A0697014AE150E0F7
:100FA0006B817C8182E896E00E942A060F900F9068
:100FB0000F900F90DF91CF910F91FF90EF90DF9006
:100FC000CF90BF90AF909F908F907F906F905F90E9
:100FD0004F903F902F9008958F929F92AF92BF9223
:100FE000CF92DF92EF92FF920F931F93CF93DF93F5
:100FF0005C01AC0163E070E090E080E00E945A0781
:10100000CC24C394D12CF12CE12C03E010E09AEF16
:10101000892E99249A94CEEFDFEF8FEFE81AF80A21
:1010200082E0C80ED11CCC0DDD1DA501B801C701A1
:101030000E945A07E016F10668F0DF91CF911F91E8
:101040000F91FF90EF90DF90CF90BF90AF909F9067
:101050008F900895CF3FDC0701F30150110982E022
:10106000880E911CC80DD91DD8CF213069F038F0F9
:10107000223079F0840F911D47FD9A950895860FCF
:10108000911D67FD9A950895841B910947FD9395DD
:101090000895861B910967FD93950895213069F0A5
:1010A00038F0223079F0861B910967FD93950895F9
:1010B000840F911D47FD9A950895860F911D67FD38
:1010C0009A950895841B910947FD939508953F9241
:1010D0004F925F926F927F928F929F92AF92BF9248
:1010E000CF92DF92EF92FF920F931F93CF93DF93F4
:1010F0007C01162F442EEC01C25ADF4F5E806F80B8
:101100006C018AE8C80ED11C78847518312E7116CE
:1011100008F4372C8C809D800E85202F462D652D60
:101120008A819B810E9435085C01202F462D652D08
:10113000C4010E944E08AC01442079F08C85F60170
:101140008083232D30E0B501C7010E942A061715C0
:1011500048F017196394512CD7CF8B858111F7CFA5
:101160008D85EDCF150D1E836F82DF91CF911F917D
:101170000F91FF90EF90DF90CF90BF90AF909F9036
:101180008F907F906F905F904F903F900895DC011B
:101190001A964C911A97ED91FC911197249130E099
:1011A000042E02C0359527950A94E2F7842F860F06
:1011B000883068F031961196FC93EE93E49198E0B4
:1011C000941B01C0EE0F9A95EAF72E2B88501A96C1
:1011D0008C938FEF9FEF01C0880F6A95EAF7809597
:1011E00082230895FC01E60FF11D849190E0982F71
:1011F00088273196E4918E0F911D0895AF92BF928A
:10120000CF92DF92EF92FF920F931F93CF93DF93D2
:1012100000D000D01F92CDB7DEB78C01DC01DA968A
:10122000AC90DA97DB96EC90DB97ED91FC91B1886E
:10123000FE2CD12CC12CD801ED91FC911197808905
:10124000D8962D913C911C82FD828B83B8E08B9FB8
:10125000C00111248C9DA0018D9D500D9C9D500DB1
:101260001124240F351F3A832983D8011496ED9158
:10127000FC919E012F5F3F4F41E06FE0C80109954F
:10128000F3948F2D8E198A1528F4BFEFCB1ADB0A41
:10129000FB1488F20F900F900F900F900F90DF913A
:1012A000CF911F910F91FF90EF90DF90CF90BF9063
:1012B000AF900895CF92DF92EF92FF920F931F931A
:1012C000CF93DF93EC01962F683109F44BC0B9013D
:1012D000993130F49431C9F0973189F080E006C03B
:1012E000993109F461C09032C9F781E0DF91CF9163
:1012F0001F910F91FF90EF90DF90CF90089550E0F5
:1013000082E792E00E947A01F0CF8C859D85AE85C0
:10131000BF85892B8A2B8B2B71F4E881F981A585F8
:10132000B0E020EA36E841E050E00E9491126C877C
:101330007D878E879F871092FB011092FA01109291
:10134000FD011092FC010E942D028EE491E0909329
:101350002502809324028FE491E0909329028093E8
:101360002802C3CF2C853D854E855F8560E074E201
:1013700084EF90E00E946F12205131094109510918
:1013800056954795379527952093B8008E8990E01C
:101390009595879591E09093D9018093AE01109235
:1013A000FD011092FC01A1CFD091FC01D13208F0D7
:1013B00093C0C091AE010E949D026B017C0180919F
:1013C0004C02811164C082E080934C0281E08093E2
:1013D0004E028FEF80934B0210927002D0936F02F7
:1013E000A9EBB1E0EFE4F2E080E0D8137CC010920A
:1013F000710280917102CC0FC82BC0937102809151
:101400004D02813009F073C010924D020E949D027E
:101410006B017C01809171028093BB008091FF0180
:1014200090910002A0910102B0910202892B8A2BB7
:101430008B2B99F00E949D020091FF0110910002F8
:1014400020910102309102026C197D098E099F09D9
:101450000617170728073907D8F18091BC0083FDCC
:10146000D9CF85EC8093BC000E949D026B017C016A
:1014700080914C028230E9F180914B028F3F61F103
:1014800080914B02803241F180914B0225C08091C6
:10149000FF0190910002A0910102B0910202892BFC
:1014A0008A2B8B2B09F48BCF0E949D020091FF01A8
:1014B0001091000220910102309102026C197D0905
:1014C0008E099F09061717072807390708F077CFF5
:1014D0008091FE010E944B021092FD011092FC01CE
:1014E0001092D90102CF9D9191938F5F7ECF85EEAF
:1014F000B9CF8091FF0190910002A0910102B091BB
:101500000202892B8A2B8B2B09F4B2CF0E949D02F9
:101510000091FF011091000220910102309102021E
:101520006C197D098E099F090617170728073907C7
:1015300008F09ECFCDCF0F931F93CF93DF93EC0195
:10154000862F642F8C3208F03AC08A3208F060C0CF
:10155000883209F44BC0893209F460C0803408F441
:1015600075C0982F9F73FE01E90FF11D868D8F3F87
:1015700009F44EC0903108F436C0282F30E0F9014C
:10158000E255FF4F8491F901E656FF4F0491F901AE
:10159000EA57FF4F1491112379F081110E94D6016F
:1015A000E12FF0E0EE0FFF1FE859FF4FA591B49136
:1015B000EC910E2381E009F480E0898F29C08D32FF
:1015C00099F108F4CBCF94EB980F923008F0C6CF86
:1015D0008F73C80FD11D8E8D411134C061E00E9400
:1015E0006C0260E08E8D0E94FF0112C08E01025ECF
:1015F0001F4FD0E0F80181918F018F3F31F061E002
:10160000D03108F062E00E946C02DF5FD63191F7C2
:1016100081E0DF91CF911F910F91089570E090E0EC
:1016200080E00E94C202F4CF85E090E0433010F0E9
:1016300082E090E0880F991F880F991F0597019706
:10164000F1F7E6CF62E00E946C02E2CF80E0E1CFEA
:10165000CF92DF92EF92FF920F931F93CF93DF937E
:101660006C01EB017B01E40EF51E10E000E0CE15ED
:10167000DF0561F06991D601ED91FC910190F08157
:10168000E02DC6010995080F191FF1CFC801DF91A0
:10169000CF911F910F91FF90EF90DF90CF90089521
:1016A0002F923F924F925F926F927F928F929F9272
:1016B000AF92BF92CF92DF92EF92FF920F931F9360
:1016C000CF93DF93CDB7DEB728970FB6F894DEBF80
:1016D0000FBECDBF7C016C0124E0C20ED11CFC0109
:1016E000E057FF4F0190F081E02DC60109958C0174
:1016F0008E3F9F4F08F061C0370184E9680E711C6E
:10170000F3010190F081E02DFD83EC835701F2E9B4
:10171000AF0EB11CF50180809180970120593F4F99
:101720003B832A83F9018081813009F470C008F479
:101730005FC0823009F476C0833009F482C0F701BB
:10174000EC59FF4F9182808232962C813D8131830A
:10175000208338978081918147969D838C830F3FAA
:10176000110511F008F020C1B6960136110530F4CC
:101770000134110558F0F701EE57FF4F8081918138
:101780002C813D81280F391F3D832C838C819D81C5
:101790000196FC01249121115FC090E080E0EA8174
:1017A000FB812081213009F4C1C108F4B7C1223086
:1017B00009F4BEC1233009F4C3C181E090E028964A
:1017C0000FB6F894DEBF0FBECDBFDF91CF911F9152
:1017D0000F91FF90EF90DF90CF90BF90AF909F90D0
:1017E0008F907F906F905F904F903F902F900895D3
:1017F000F701E05AFF4F0190F081E02DC6010995F5
:101800002C813D81280F391F3D832C8398CFF70110
:10181000E05AFF4F0190F081E02DC6010995881A2A
:10182000990A8DCFF701E05AFF4F0190F081E02D2A
:10183000C6010995EC81FD81E81BF90BFD83EC8362
:101840007ECFF701E05AFF4F0190F081E02DC601F5
:101850000995880E991E73CFEC81FD812491201784
:10186000110609F09AC0CF010296009709F495CFAE
:10187000F701EE59FF4FF887EF839183808312863B
:10188000739660818F8198850E94C708EF81F885E3
:101890008087F701EA58FF4F60818F8198850E9409
:1018A000C708582EEF81F8858187970122573F4F4F
:1018B0003D832C83F9019081EF81F885948781E045
:1018C000911180E0EF81F8858587F701E958FF4F96
:1018D0008080682D8F8198850E94C708382EF70177
:1018E000E858FF4F2080622D8F8198850E94C7089D
:1018F000982EF701E758FF4F1081612F8F8198854F
:101900000E94C7089FEF910F01E010E0980101C00D
:10191000220F9A95EAF7821B8E83EF81F885408427
:1019200014140CF0C4C08A94C80101C0880F8A94B2
:10193000EAF7381AF685F983950C2A94C80101C094
:10194000880F2A94EAF7282E29182F2F422D632D6D
:10195000EF81F885828193810E9435084C01EF81E7
:10196000F885938382832981422D632D848195811B
:101970000E944E08EF81F88595838483F981F130C8
:1019800009F49AC008F44EC0F23009F4A4C0F33050
:1019900009F4B5C0BC0194014FC0FC0184912C81B5
:1019A0003D81280F311DF0CEF701EA57FF4F8081AE
:1019B0009181EC81FD81E80FF91FFD83EC834F01DC
:1019C00060E0C4010E94F2082C813D81280F391F7C
:1019D0003D832C8362E0C4010E94F20834E0830E50
:1019E000911C8017910760F3EC81FD81849190E058
:1019F000982F88273196E4918E2B009709F4CDCE4D
:101A00000817190721F48C819D8103962ECFEC8154
:101A1000FD813296E4912C813D812E0F311D3D8355
:101A20002C83E2CF9401240D311D47FC3A95BC0173
:101A3000650D711D57FC7A958B01AC01B401C6018F
:101A40000E943D05882399F1EF81F885168217825F
:101A50004701F3E78F0E911C24E7E20EF11CF4011D
:101A600060818F8198850E94C708082FF7016081E7
:101A70008F8198850E94C708182F40E0602FC6010B
:101A80000E94670841E0612FC6010E94670861E07B
:101A90008F8198850E94C7088111EFCFEF81F8856B
:101AA00087818515E4F28485EC81FD818083FE8148
:101AB0008F2FFF0F990B73CE0519110957FC139542
:101AC00094012F5F3F4FBC01640D711D47FC7A9557
:101AD000800E911EB1CFA8014419510947FC5395BE
:101AE00094012F5F3F4F0519110957FC1395BC0155
:101AF0006F5F7F4F800F911F840E951E9DCF9401C5
:101B0000250D311D57FC3A950419110947FC139511
:101B1000BC016F5F7F4F800F911F8ECFF501208139
:101B20003181820F931F9183808347CEF301F7CFDA
:101B3000F50120813181281B390B318320833DCE73
:101B4000F301F7CF089590E080E0089585ED80934C
:101B5000BC008091FF0190910002A0910102B09120
:101B600002020796A11DB11D23E0B695A795979592
:101B700087952A95D1F72091BC0024FD03C01092CF
:101B80004C0208954091FF015091000260910102C2
:101B900070910202452B462B472B69F30097A10554
:101BA000B10541F02AE22A95F1F700C00197A10999
:101BB000B109E1CF8091FE010C944B02FC01A081A0
:101BC000B18150962C9182AD38E0839FC0011124E1
:101BD000289FA001299F500D112470E060E080AD86
:101BE00091AD0C94C5121F920F920FB60F92112453
:101BF0002F933F934F935F936F937F938F939F9315
:101C0000AF93BF93EF93FF938091B900887F8036A5
:101C100009F44AC0F0F5883209F4A7C018F58031FC
:101C200009F49BC0B8F4882309F4F9C0883009F49A
:101C300094C0FF91EF91BF91AF919F918F917F9150
:101C40006F915F914F913F912F910F900FBE0F9029
:101C50001F901895883109F488C0803251F780931D
:101C60004B0214C0803409F49DC040F48033B9F3B2
:101C70008833F9F680934B0285ECB0C0803509F4C7
:101C800085C0883509F496C0883499F60E94A60D5F
:101C9000D0CF883909F48CC038F5883729F050F452
:101CA000883611F0803729F683E080934C02109239
:101CB0004A0257C0883809F47BC0803919F080384F
:101CC00009F0B7CF80914A02803208F071C0E091EC
:101CD0004A0281E08E0F80934A028091BB00F0E0BF
:101CE000E65DFD4F80833DC0803B39F0E0F4803AF3
:101CF00009F479C0883A09F09CCF84E080934C02C3
:101D00001092270210922602E0912402F0912502FF
:101D100009958091260281110FC081E080932602EF
:101D20001092040209C0803C09F4A6CF883C09F453
:101D3000A3CF883B09F07DCFE091270281E08E0F91
:101D400080932702F0E0EC5FFD4F80818093BB0021
:101D5000909127028091260229C080917102809380
:101D6000BB0085EC8093BC0064CF909170028091A1
:101D70006F02981758F5E091700281E08E0F809302
:101D80007002F0E0E15BFD4F8081E9CFE0917002ED
:101D900081E08E0F809370028091BB00F0E0E15BE8
:101DA000FD4F80839091700280916F029817C8F266
:101DB00085E8D8CFE091700281E08E0F80937002A9
:101DC0008091BB00F0E0E15BFD4F808380914E028B
:101DD00081115CCF81E080934D0284EA8093BC0046
:101DE00010924C0226CF85EC8093BC0010924C02DE
:101DF00080914A02803230F4E0914A02F0E0E65DE0
:101E0000FD4F108260914A0270E0E0912802F0914B
:101E100029028AE292E0099510924A020ACF1092B2
:101E20004B0234CF1F920F920FB60F9211242F93B3
:101E30003F938F939F93AF93BF938091B101909104
:101E4000B201A091B301B091B4013091B00123E08F
:101E5000230F2D3758F50196A11DB11D2093B00118
:101E60008093B1019093B201A093B301B093B401F8
:101E70008091B5019091B601A091B701B091B801E0
:101E80000196A11DB11D8093B5019093B601A09359
:101E9000B701B093B801BF91AF919F918F913F91DE
:101EA0002F910F900FBE0F901F90189526E8230FCB
:101EB0000296A11DB11DD2CFCF9310927502109240
:101EC000740288EE93E0A0E0B0E0809376029093F5
:101ED0007702A0937802B093790289E691E090931B
:101EE00073028093720210928106109280068CE831
:101EF00090E090930F0780930E07109211071092B5
:101F00001007109213071092120710929A068BE78F
:101F100091E090937F0680937E0610928306109244
:101F200082061092970610928E0610928F061092DB
:101F30009006109291068FEF8093980680939C06EE
:101F4000E0EAF6E086EB96E0CFEFC1938E179F07AD
:101F5000E1F78CE793E0909387068093860681E70C
:101F600094E090938906809388068AE599E090939F
:101F70008B0680938A068BE99AE090938D06809376
:101F80008C0630E020E040E069E082E896E00E94C4
:101F90007C031092DD061092DC0686E990E09093B7
:101FA000B7068093B6068EE792E09093BB068093C7
:101FB000BA0688E08093BC061092BD061092EB062C
:101FC00010920B071092070781E080930C07809313
:101FD0000D0783E891E09093B9068093B80682E8F4
:101FE00096E00E94EB041092D5061092D40610924F
:101FF000D9061092D8068FEF9FEF9093D706809363
:10200000D6069093DB068093DA06E091B806F0914D
:10201000B9060280F381E02D82E896E0099585E01B
:1020200091E09093DF068093DE061092EE06C09357
:10203000AB06C093AC06C093AD06CF910895CF9385
:10204000DF9300D000D0CDB7DEB7789484B582603E
:1020500084BD84B5816084BD85B5826085BD85B54C
:10206000816085BD80916E00816080936E001092CA
:102070008100809181008260809381008091810045
:1020800081608093810080918000816080938000D6
:102090008091B10084608093B1008091B000816034
:1020A0008093B00080917A00846080937A00809160
:1020B0007A00826080937A0080917A0081608093B8
:1020C0007A0080917A00806880937A001092C10033
:1020D000E0918606F091870630E020E040E06AE07B
:1020E00082E896E0099580910D07882321F082E827
:1020F00096E00E94DE0D80E00E94080182E896E0F2
:102100000E94FE082091BD068091BC06280F2983FD
:10211000E0918206F09183068189281708F453C163
:1021200082E896E00E94FC0280E00E940801E091B3
:102130008606F091870630E020E040E06BE082E820
:1021400096E0099514E2412E512C00E4202E312C0A
:1021500082E896E00E94DE0D05E310E025E530E020
:102160004CE050E06CE270E082E896E00E943D05B1
:10217000811133C10EE110E02CE330E047E150E083
:1021800065E370E082E896E00E943D05882321F037
:1021900088E390E00E94EC070EE110E02CE430E0D0
:1021A00047E150E065E470E082E896E00E943D057A
:1021B000882321F088E490E00E94EC0701E310E01E
:1021C0002DE430E048E150E064E370E082E896E01E
:1021D0000E943D05882309F4E0C0FBE06F2E712CBE
:1021E0002CE030E03C832B8310E000E03FEF309F99
:1021F000C001319F900D11246B817C810E945B1284
:102200006B01770FEE08FF08A70196012F5F3109D8
:1022100041095109C701B60163557C4F8F4F9F4F4C
:102220000E944B1223E930EC4BE050E0261B370BA9
:10223000480B590BC701B6010E944B1223E936EA3D
:102240004DE550E00E946F1269017A01DA01C9017F
:1022500084559109A109B10984379105A105B105FA
:1022600048F0B201601B710B8B819C81805C9F4F99
:102270000E94D50652014B815C81A41AB50AC8019F
:10228000805C9F4F9A838983B5010E94D506D70150
:10229000C6014497A109B10984379105A105B1058B
:1022A00030F0B501C101801B910B0E94D50646019B
:1022B000570194E5890E911CA11CB11C20E88216DF
:1022C0009104A104B10450F0B201601B710BC10173
:1022D0002B813C81821B930B0E94D506D701C6013E
:1022E00080589F4FAF4FBF4F883C9105A105B10566
:1022F00050F0B8016C5D7F4FC1014B815C81841B44
:10230000950B0E94D50630EC83169104A104B1040C
:1023100048F06B817C816C5D7F4FC101801B910B0C
:102320000E94D506D701C60180549F4FAF4FBF4FC3
:10233000883C9105A105B10540F06B817C816C5D05
:102340007F4F89819A810E94D50658E3C51AD1082A
:10235000E108F10884E7C816D104E104F10448F06B
:10236000B8016C5D7F4F8B819C81805C9F4F0E9488
:10237000D506C801880F991F681679060CF466C047
:10238000681A790A91E0691A71080F5F1F4F4B8133
:102390005C81401751070CF029CF82E896E00E943B
:1023A000FE0882E896E00E94FC0264EF71E080E0A3
:1023B00090E00E94C20280E090E0892B09F4C8CE30
:1023C0000E940000C5CE80910D07882321F082E88D
:1023D00096E00E94DE0D89818FCE64E170E090E08E
:1023E00080E00E94FD06CC24C394D12CF12CE12C7A
:1023F00004E110E0B8EDAB2EBB24BA944DEE5FEFD4
:102400005A8349833FEFE31AF30A42E0C40ED11C1A
:1024100089819A818C0D9D1D9A838983B801C7019A
:102420000E94FD06E016F10608F0A4CE89819A818B
:1024300097FDE8CF0150110992E0A90EB11C298146
:102440003A812A0D3B1D3A832983DCCF8B819C8105
:1024500001972CE030E04B815C81241B350B220F6F
:10246000331F6216730650F4440F551F640E751E19
:1024700051E0651A71089C838B8389CF2B813C8145
:10248000201B310B21503109220F331F620E731EA6
:102490000F5F1F4FF0CFDB018F939F930E9491122C
:1024A000BF91AF91A29F800D911DA39F900DB29FF0
:1024B000900D1124089597FB072E16F4009407D071
:1024C00077FD09D00E949C1207FC05D03EF4909540
:1024D00081959F4F0895709561957F4F0895A1E272
:1024E0001A2EAA1BBB1BFD010DC0AA1FBB1FEE1F8E
:1024F000FF1FA217B307E407F50720F0A21BB30BD9
:10250000E40BF50B661F771F881F991F1A9469F754
:1025100060957095809590959B01AC01BD01CF01B0
:1025200008950E94B612A59F900DB49F900DA49F90
:10253000800D911D11240895AA1BBB1B51E107C0FA
:10254000AA1FBB1FA617B70710F0A61BB70B881F43
:10255000991F5A95A9F780959095BC01CD010895D2
:10256000EE0FFF1F0590F491E02D0994A29FB0019A
:10257000B39FC001A39F700D811D1124911DB29FB7
:10258000700D811D1124911D0895DC0101C06D9312
:0C25900041505040E0F70895F894FFCF50
:10259C001815A015C019FF1815A115C819FF181585
:1025AC00AE19FF1815AF19FF1815AE15D5168015F5
:1025BC00A8163F15D316001540158D1614152016A8
:1025CC000015A115C815DA1612158116CF15D916D6
:1025DC00F115DB1640152E15A415A619FF000114D4
:1025EC000A6464323200127A000004289610080043
:1025FC00008000400000000000A7017A01A30D50EC
:10260C000173016001510100000000500B280BA365
:0A261C000DA20DEB047605DB0400AF
:00000001FF
